:020000040000FA
:02000000FF2AD5
:080008002000911E09280824C4
:1000100009002100111E17282000111E17285A0858
:1000200023009A00210011122000D90109002000AC
:10003000931D1D289311421409009110003054069D
:1000400003193628D10B36285408D100540852061B
:10005000031D2F28D20B36287F30D20036287F3060
:10006000AE06031D3528AE013628AE002E082B0241
:10007000031C0030AF002E082C02031C0030B0001F
:100080002E082D02031C0030B1002F08260091001D
:10009000200030082600980020003108250091003B
:1000A00020002000DE0A090023009D188F2B20006D
:1000B000471CBD28D70BBD2848080027D700D60B02
:1000C000BD284808D6002B03891B7B282C03891BDD
:1000D00089282D03891B942801302B060319B601AA
:1000E00001302C060319B701BB01CA1B7928AB03E9
:1000F000BD28AD03BD282C03891B9D282D03891B1A
:10010000A9287F302C0603198728AC0ABD28AD0327
:10011000BD282D03891BB2287F302D060319922894
:10012000AD0ABD28AB03BD287F302B0603199A28E2
:10013000AB0ABD28AC03B701BD282D03891BBB2822
:100140007F302D060319A728AD0ABB01BD28AC0AD4
:10015000BD287F302C060319B028AC0ABA01BD288F
:10016000AB0ABD287F302B060319B928AB0AB901A9
:10017000BD28AD0ABD28AB0ABD28C40B2E29BE3050
:10018000C400461CDD28451CDD284510C618D328B0
:10019000AB0A7F302B020319C614031CDC28C614DB
:1001A0007E30AB00DC280130AB020319C610031807
:1001B000DC28C6100130AB00CC01461DF928C51C57
:1001C000F928C510C619EF28AC0A7F302C02031994
:1001D000C615031CF828C6157E30AC00F82801307F
:1001E000AC020319C6110318F828C6110130AC007F
:1001F000CD01461E1529451D15294511C61A0B2985
:10020000AD0A7F302D020319C616031C1429C61629
:100210007E30AD0014290130AD020319C612031857
:100220001429C6120130AD00CE010630C300CC0A3D
:10023000CD0ACE0A49084C06031D2029CC014514DD
:100240004A084D06031D2629CD01C5144B084E064C
:10025000031D2C29CE014515C30B1729421C1F2A4B
:10026000421000303906031D3E2100303A06031DBE
:10027000892100303B06031DD4211F2A2B08360696
:10028000031D4529B901BC01080000303C060319D3
:100290004B29BC030800391E3C14B91EBC14391F7D
:1002A0003C1500303C06031D59293608AB00B90146
:1002B00008003C1965293C1C6129BC1C63290830D5
:1002C000732910307329203073293C1C6B29BC1C06
:1002D0006F2901307329BC1C712902307329033046
:1002E000732904307329C00036082B02BF00031C99
:1002F00081294008BF02031C7F29AB020800AB0321
:1003000008004008BF0703188729AB070800AB0A9D
:1003100008002C083706031D9029BA01BD0108000A
:1003200000303D0603199629BD0308003A1E3D140E
:10033000BA1EBD143A1F3D1500303D06031DA42909
:100340003708AC00BA0108003D19B0293D1CAC29A2
:10035000BD1CAE290830BE291030BE292030BE2970
:100360003D1CB629BD1CBA290130BE29BD1CBC29C3
:100370000230BE290330BE290430BE29C000370830
:100380002C02BF00031CCC294008BF02031CCA2951
:10039000AC020800AC0308004008BF070318D229CC
:1003A000AC070800AC0A08002D083806031DDB293D
:1003B000BB01BE01080000303E060319E129BE035F
:1003C00008003B1E3E14BB1EBE143B1F3E150030F2
:1003D0003E06031DEF293808AD00BB0108003E1999
:1003E000FB293E1CF729BE1CF9290830092A1030C8
:1003F000092A2030092A3E1C012ABE1C052A013088
:10040000092ABE1C072A0230092A0330092A0430AF
:10041000092AC00038082D02BF00031C172A400813
:10042000BF02031C152AAD020800AD0308004008F6
:10043000BF0703181D2AAD070800AD0A080066189B
:10044000E82AE618D42A6619DE2A2000DE1FFD2AD3
:100450007830DE00DD18952A5D18632AF3225F08E4
:10046000600603195F2A5F08610603195F2A6008A6
:10047000E1005F08E000DC005D1B582ADD1A4C2A11
:100480000D1A4A2A6008803CC8004714803048068C
:100490000319471009305D2A0D1A562A6008803C5E
:1004A000C9004614803049060319461014305D2AED
:1004B0000D1A5C2A6008AB000E30DB00CD25200051
:1004C0005D141530C62AF3225F0862060319922ACA
:1004D0005F0863060319922A6208E3005F08E200DE
:1004E000DC005D1B8B2ADD1A7F2A0D1A7D2A62082B
:1004F000D400003054060319AE010130902A0D1AC1
:10050000892A6208803CCA00461580304A060319D1
:1005100046111530902A0D1A8F2A6208AC000F3050
:10052000DB00CD25DD140530C62AF3225F08640602
:100530000319C32A5F0865060319C32A6408E50086
:100540005F08E400DC005D1BBB2ADD1AAF2A0D1A30
:10055000AB2A6408AE00803CDC001130C02A0D1AC2
:10056000B92A6408803CCB00461680304B0603193C
:1005700046121630C02A0D1ABF2A6408AD0010308A
:10058000DB00CD25C32A5D10DD10193021009D0050
:1005900020000C1CCD2ADD13FD2ADD1BFD2ADD17F2
:1005A0005D1BE82ADD1ADE2ADD161E30DB00023074
:1005B000DC00E61CCD25E601D023FD2A5D171E30A8
:1005C000DB000330DC00661DCD25E601EC23FD2AAF
:1005D000DD125D131E30DB000130DC00661CCD2512
:1005E000E601B423FD2A21009D149D18F52A1C085C
:1005F0002000DF00DF0CDF13080020005428230058
:1006000002308C00C0308D008D01210099019801CD
:1006100027009A0124008D012100951322009D17C7
:1006200022001E1420008C018D0122008C018D01FE
:1006300021003F308C00DF308D00250055309E00BA
:1006400028007F30960025000C3093009A01260088
:100650000C3093009A00250091012600910126009C
:10066000980123009D171E129E161E159F119C01B6
:1006700017309B001D121D16210020309E00210006
:1006800019309D005D142100083095002000C03015
:100690008B002100223091009201083093009401D8
:1006A0002000931020003C309C002000FF309B0075
:1006B00028000430970021008C110C128D112800A5
:1006C0002D309E002800FF309D002000E725A50169
:1006D000B901BB01BA01B601B801B701AB01AD0167
:1006E000AC01AE01C801C701C601C501D401A80112
:1006F000A901DD01D301D901D801E6010230C4000E
:100700000130C1000A30AA007F30D200FF30D10092
:10071000D7008F2323001D121D16200054287F3080
:10072000AB00E725E725E725AB017F30AC00E725E7
:10073000E725E725AC017F30AD00E725E725E72574
:10074000AD017F30AB00E725E725E725AB017F3022
:10075000AC00E725E725E725AC017F30AD00E725B4
:10076000E725E725AD0108002B08E7002C08E80085
:100770002D08E900AB01AC01AD01E725E725E72530
:100780007F30AB00E725E725E725AB01E725E72527
:10079000E7256708AB006808AC006908AD000800F1
:1007A0002B08E7002C08E8002D08E900AB01AC019C
:1007B000AD01E725E725E7257F30AC00E725E725F4
:1007C000E725AC01E725E725E7256708AB006808C2
:1007D000AC006908AD0008002B08E7002C08E80011
:1007E0002D08E900AB01AC01AD01E725E725E725C0
:1007F0007F30AD00E725E725E725AD01E725E725B3
:10080000E7256708AB006808AC006908AD00080080
:10081000230019082000A6005918192C111E192CA4
:10082000581C152CA61F192CD801260823009A0045
:100830002000A61F422C261F272CA61E3A2C261E5F
:10084000402CA619080026190800A7010800A61EBA
:100850002E2C261E382CA7012715332CA701261E67
:100860002714261AA7140330A5002608A2000800A2
:10087000A7010800261A3E2CA7010800A7010800BE
:10088000A7010800251C4A2CA51C4C2C2608A300F7
:10089000A51008002514462C2608A400A501A001D7
:1008A0008D1820140D18A0148C1A20150C19A015E1
:1008B0002208A00620186F2CA0186F2C20196F2C6E
:1008C000A0196F2CA81F7D2C221E712CA21E712C2A
:1008D000221B712C19302306031D712CC02CA81F5C
:1008E00008002808A0002208A00620180800A01868
:1008F000080020190800A01908002718442DA7187F
:10090000452D2719902CA719882C271A892C080007
:100910000800A90124182914A418A9140800080023
:10092000173023060319892C0E30230603193B2D9B
:100930000F30230603193E2D103023060319412DD5
:1009400003302306031DB12C24080026AB00200031
:1009500024081226AC00200024082026AD00200028
:10096000080001302306031DBC2C2408D4000030ED
:1009700054060319AE01080019302306031DC92CC3
:100980002408A800003028060319C92CA803A817BA
:1009900008001E302306031DD92C0130240603193C
:1009A0006614023024060319E614033024060319E2
:1009B00066152408803CA40011302306031DE42C96
:1009C0002408AE00AE03080009302306031DF02CF6
:1009D0002408C8004714803048060319471008004F
:1009E00014302306031DFC2C2408C9004614803053
:1009F000490603194610080015302306031D082D6B
:100A00002408CA00461580304A060319461108001A
:100A100016302306031D142D2408CB004616803003
:100A20004B0603194612080013302306031D1C2D24
:100A3000AB01AC01AD0108001B302306031D242DC2
:100A4000AB01AC01AD01282D1A302306031D392D51
:100A5000D401D301B901BA01BB01C601C901CA0160
:100A6000CB01C501CC01CD01CE01AE01C701C8014A
:100A70000800A50108002408AB0008002408AC0009
:100A800008002408AD000800A40100302406031962
:100A900008002408B900BA00BB0000302906031979
:100AA000692D0130290603195F2D2313A30D23108F
:100AB0000230290603195F2D2313A30D23102308E9
:100AC0000026B60023081226B70023082026B80007
:100AD0000800A3132313A312231AA42DA3198A2DEC
:100AE000A311B7017F302319802DB600B801003063
:100AF0002306031908002030B807A30B7C2D8F2C88
:100B0000B8002311A30A9F30B6002030B602A30B11
:100B1000862D8F2CA311B6017F3023199A2DB80092
:100B2000B70100302306031908002030B707A30BD4
:100B3000962D8F2CB7002311A30A9F30B8002030C8
:100B4000B802A30BA02D8F2C2312A319C02DB8011E
:100B50007F302319B62DB700B601003023060319E4
:100B600008002030B607A30BB22D8F2CB60023113E
:100B7000A30A9F30B7002030B702A30BBC2D8F2CE7
:100B8000A311A30A9030D0001230D002A30BC52DC0
:100B90005008B600B700B80008002518080059181A
:100BA0000800111E080023009E18D82D2000080000
:100BB0005814BF309A0020005B0823009A002000E0
:100BC0005C08DA0059142100111620000800FA30E0
:100BD000B300C730B4000130B500B40BF02DB50B35
:080BE000ED2DB30BE92D0034EB
:100C0000D5006A30550203187F341730D502031C13
:100C10007F3414305502031C2E2E3F30D5020318AA
:100C20004A2E0034D5002C30D502031C0034143079
:100C30005502031C4A2E3F30D50203182E2E7F3456
:100C4000D500553055020318003416305502031CE8
:100C5000462E4130D50203182E2E7F3455080B0046
:100C60000000793473346D34673461345B34553447
:100C70004F34493443343C34363430342A34243409
:100C80001E34183412340C34063400340230D502C9
:100C9000031C003455080B00000006340C341234D9
:100CA00018341E3424342A34303436343C3443343B
:100CB00049344F3455345B34613467346D347334A4
:020CC000793485
:100E00000B00013401340134013401340134013464
:100E10000134023402340234023402340234023423
:100E2000023403340334033403340334033404340A
:100E300004340434043405340534063406340734E9
:100E4000073408340834093409340A340A340B34BA
:100E50000B340C340C340D340D340E340F34103488
:100E6000113412341334143415341634173418343E
:100E700019341A341B341C341D341E341F342034EE
:100E80002134223423342534273429342B342D348F
:100E90002F34313433343534373439343B343D3402
:100EA0003F34413443344534473449344B344D3472
:100EB0004F34513453345534573459345B345D34E2
:100EC0005F34613462346334643465346634673467
:100ED000683469346A346B346C346D346E346F3416
:100EE00070347134723473347434753476347734C6
:100EF000783479347A347B347C347D347E347F3476
:020F000080343B
:020000040001F9
:02000E00820965
:02001000FF1CD3
:00000001FF
